:020000040800F2
:10000000180400209D010008490F0008450B000856
:10001000450F0008850200081D10000800000000C0
:10002000000000000000000000000000510F000868
:1000300089020008000000004D0F0008550F00085D
:10004000B7010008B7010008B7010008B7010008B0
:10005000B7010008B7010008B7010008B7010008A0
:10006000B7010008B7010008B7010008B701000890
:10007000B7010008B7010008B7010008B701000880
:10008000B7010008B7010008B7010008B701000870
:10009000B7010008B7010008B7010008B701000860
:1000A000B7010008B7010008B7010008B701000850
:1000B000B7010008B7010008B7010008B701000840
:1000C000B7010008B7010008B7010008B701000830
:1000D000B7010008B7010008B7010008B701000820
:1000E000B7010008B7010008B7010008B701000810
:1000F000B7010008B7010008B7010008B701000800
:10010000B7010008B7010008B7010008B7010008EF
:10011000B7010008B7010008B7010008B7010008DF
:10012000B7010008B7010008B7010008B7010008CF
:10013000B7010008B7010008B7010008B7010008BF
:10014000B7010008B7010008B7010008B7010008AF
:10015000B7010008B7010008B7010008B70100089F
:10016000B7010008B7010008B7010008B70100088F
:10017000B7010008B7010008B7010008000000003F
:10018000B7010008B7010008DFF80CD000F068F8EC
:100190000048004721100008180400200648804746
:1001A00006480047FEE7FEE7FEE7FEE7FEE7FEE75C
:1001B000FEE7FEE7FEE7FEE70910000889010008F8
:1001C0002DE9F05F0546002092469B46884606468C
:1001D000814640241BE0284641464746224600F01F
:1001E0002FF853465A46C01A914110D3114618466B
:1001F000224600F016F82D1A67EB01084F462246FA
:100200000120002100F00DF817EB00094E41201EDF
:10021000A4F10104DFDC484631462A464346BDE8E6
:10022000F09F202A04DB203A00FA02F100207047F8
:100230009140C2F1200320FA03F319439040704724
:10024000202A04DB203A21FA02F00021704721FA2B
:1002500002F3D040C2F12002914008431946704792
:10026000064C074D06E0E06840F0010394E8070003
:1002700098471034AC42F6D3FFF78AFF8410000889
:10028000A4100008FEE7000070470000B0B5044667
:1002900000F0F4F8054640F20000C2F200000078D9
:1002A000611C18BF044400BF00F0E8F8401BA042E6
:1002B000FAD3B0BD2DE9F04F82B000F13E4241F6D5
:1002C000004502F1FF77C4F2020508224FEAB72683
:1002D000A84208BF0722072E38BF4FEAB7224FF0C7
:1002E000010A002400274FF00008009208E000BF38
:1002F000023708F10108202F04F1040400F0B48053
:100300000E680AFA08F916EA090FF1D0D1F804A02C
:100310000AF0030BABF10106012E17D80322866801
:1003200002FA07FECA6826EA0E06BA403243826025
:100330004268CAF3001522EA090205FA08F54FEAF5
:10034000480C6FEA0E062A4342600BE00322BA40D3
:10035000D643BBF1030FBC4604D1BC464FF0030BA0
:1003600022E000BFC2688D68324005FA0CF52A43CE
:10037000BBF1020FC26017D16FF0030202EA58020C
:10038000024404F01C030F25D2F820E005FA03FA1A
:100390000D692EEA0A0E05FA03F343EA0E0313620F
:1003A000D1F804A00AF0030B02680BFA0CF33240F8
:1003B0001A431AF4403F4FF0010A026098D000221D
:1003C00043F644030192C4F202031A6843F6004E56
:1003D00042F480421A601A68C4F2010E02F48042AC
:1003E0000192019A28F003024FF6084C7244CFF6AE
:1003F000FF7C52F80C3004F00C060F25B540AB43DF
:10040000009D05FA06F6334342F80C30DEF808206A
:100410004B6842EA090643F60C4CDD0258BF22EA5B
:100420000906CEF80860C4F2010CDCF800209D0239
:1004300042EA090658BF22EA0906CCF80060DEF855
:1004400004209D0342EA090658BF22EA0906CEF8B5
:100450000460DEF80020DB0342EA090658BF22EA06
:100460000906CEF8006043E702B0BDE8F08F000057
:10047000002A08BF090481617047000040F214009F
:10048000C2F200000068704740F2000040F2140120
:10049000C2F20000C2F2000100780A68104408604D
:1004A0007047000080B543F60040C4F202000168C6
:1004B00041F400710160016841F4806101600168EC
:1004C00041F480710160032000F074F80F2000F007
:1004D00005F800F027F8002080BD000070B540F25C
:1004E0000006C2F2000640F208013278C2F20001B2
:1004F0004FF47A730968B3FBF2F20446B1FBF2F1F0
:10050000084600F009FB0F2C4FF0010508D838B958
:100510004FF0FF3021460022002500F01FF87460E4
:10052000284670BD82B0002043F640010190C4F21D
:1005300002014A6842F480424A604A6802F48042FA
:100540000192019A0090086840F0805008600868A5
:1005500000F080500090009802B0704710B54EF641
:100560000C5CCEF2000CDCF80030C3F3022E8EF0EF
:100570000704042C28BF0424BEF103034FF0FF3E00
:100580000EFA04F438BF0023A14399400EFA03F396
:100590009A43114300F00F02043A624409010C32FD
:1005A00000F16043B0F1FF3FC8BF03F56442117032
:1005B00010BD00004EF60C51CEF200010A684FF655
:1005C000FF031A4060F30A2242F0806040F0FD70A1
:1005D000086070472DE9F041002800F08B8043F659
:1005E0000808C4F202080446D8F8F8030D4600F0E3
:1005F0000700884207D288F8F853D8F8F80300F0CB
:100600000700A84276D12068810717D5410705D594
:10061000D8F8001041F4E051C8F80010010705D5E2
:10062000D8F8001041F46041C8F80010D8F8001064
:10063000A26821F0F0011143C8F80010C0073FD1B3
:10064000D8F8F80300F00700A84207D988F8F85353
:10065000D8F8F80300F00700A8424BD12068410702
:1006600007D5D8F80010E26821F4E0511143C8F82A
:100670000010000708D5D8F80000216920F4604078
:1006800040EAC100C8F8000000F054F8D8F80010A3
:1006900041F26E02C1F30311C0F60002515C40F258
:1006A000080220FA01F140F20400C2F200000068E2
:1006B000C2F200021160FFF711FF0020BDE8F081D7
:1006C0006068811E022907D258F8081C89015CBFA6
:1006D0000120BDE8F08111E0012807D158F8081C7D
:1006E00089035CBF0120BDE8F08107E058F8081CD1
:1006F000890703D40120BDE8F08100BFD8F80010BD
:1007000021F003010843C8F80000FFF7B7FE0646D2
:1007100041F28837D8F80000616800F00C00B0EBB7
:10072000810F8DD0FFF7AAFE801BB842F2D90320BB
:10073000BDE8F08110B543F60404C4F20204606819
:1007400000F00C0008280BD0042819BF42F200402A
:10075000C0F2F40047F64000C0F27D1010BD00BFAB
:10076000206821682368490247F64001C0F27D11E4
:1007700000F03F02C3F388105CBF42F20041C0F2B8
:10078000F401A1FB00010023FFF71AFD21680222FA
:10079000C1F3014102EB4101B0FBF1F010BD0000DB
:1007A0002DE9F04182B000286AD00446007843F673
:1007B0000006C007C4F202060BD0B06800F00C00BF
:1007C000042840F0A1803068800302D560680028CA
:1007D00056D0207880071AD5B06810F00C0F09D0D9
:1007E000B06800F00C00082840F0A8807068400253
:1007F00000F1A4803068800702D5E06801283FD16D
:100800003068216920F0F80040EAC10030602078AB
:10081000000739D4207840074ED4A5695DB3B0688D
:1008200000F00C00082840F0BD80012D28D0706831
:10083000E16900F480028A4222D1216A00F03F027D
:100840008A421DD147F6C071626A0140B1EB821F36
:1008500016D1A26A0023CFF6FF7303EBC23200F475
:1008600040316FF30F0291420AD1E16A00F07060EB
:10087000B0EB016F04D1002002B0BDE8F08100BFF1
:10088000012002B0BDE8F0816069002840F200005C
:10089000C4F2472076D00121C0F8801EFFF7EEFD9C
:1008A000054600BF706F8007B4D4FFF7E7FD401B1B
:1008B0000228F7D9DDE000BF306C10F080580AD173
:1008C00000200190306C40F080503064306C00F0BB
:1008D00080500190019847F20007C4F20007386881
:1008E000C00541D4386840F480703860FFF7C6FD19
:1008F000054600BF3868C00536D4FFF7BFFD401B72
:100900000228F7D9B5E000BFB06800F00C00082855
:1009100003D1706840023FF556AF6068B0F5803F84
:1009200007D0B0F5A02F40F08D80306840F48020D3
:100930003060306840F4803030608DE0E06800283E
:1009400052D00020C4F2472001210160FFF796FD3C
:10095000054600BF306880073FF552AFFFF78EFDB8
:10096000401B0228F6D984E0A068012805D005289C
:100970004ED1306F40F004003067306F40F001001E
:1009800030674FE00021C0F8801EFFF777FD054675
:10099000706F80077FF53EAFFFF770FD401B0228A8
:1009A000F6D966E00027C4F2472700203866FFF733
:1009B00065FD022D05460BD1306880015ED5FFF73D
:1009C0005DFD401B02284FF00300F5D954E700BF3E
:1009D000306880017FF54FAFFFF750FD401B0228C4
:1009E0004FF00300F4D947E70020C4F2472000216C
:1009F0000160FFF743FD0546306880077FF507AFCC
:100A0000FFF73CFD401B02284FF00300F4D933E709
:100A1000316F002821F001013167316F21F00401AD
:100A200031674DD0FFF72AFD054641F2883700BFF8
:100A3000306F800756D4FFF721FD401BB842F7D92D
:100A400017E000BF3168002821F48031316031683F
:100A500021F4802131604FD0FFF710FD054600BF23
:100A6000306880033FF5B5AEFFF708FD401B6428F2
:100A7000F6D9032002B0BDE8F08100BF04F11C05E7
:100A80002FCD08430021CFF6FF7140EA821001EB21
:100A9000C3316FF30F0140EA056008437060012025
:100AA0003866FFF7EBFC0446306880013FF5E3AEA3
:100AB000FFF7E4FC001B02284FF00300F4D9DBE64B
:100AC000FFF7DCFC054641F2883700BF306F800736
:100AD00008D5FFF7D3FC401BB8424FF00300F5D90F
:100AE000CAE600BFB8F1000F7FF497AE306C20F07B
:100AF0008050306491E600BFFFF7C0FC054600BFA0
:100B0000306880037FF565AEFFF7B8FC401B6428B2
:100B10004FF00300F4D9AFE6411E0020B0EB116F97
:100B20001CBF012070474EF21002CEF2000251604D
:100B30004EF62351CEF20001F0230B700721906096
:100B400011607047FEE70000B0B540F60044C4F203
:100B500002042046012100220125FFF789FC2046DE
:100B600002210022FFF784FC40F21440C4F202008C
:100B7000016865F31F21016000F006F80520BDE85B
:100B8000B040FFF783BB00002DE9F04740F6004876
:100B9000C4F202084EF2180A404604210122CEF2A5
:100BA000000AFFF765FC5AF8040C44F6D3590130EB
:100BB000C1F26209A0FB09018C09FFF75FFCDAF8BA
:100BC00000100546B1FBF4F74FF47A76FFF756FCB8
:100BD000DAF80010401BB1FBF4F1791A00FB0610A3
:100BE0003228F3D3404604210022FFF741FC5AF893
:100BF000040C0130A0FB09018D09FFF73FFCDAF876
:100C000000100446B1FBF5F74FF47A76FFF736FC97
:100C1000DAF80010001BB1FBF5F1791A00FB0610A1
:100C20003228F3D3BDE8F087F0B581B040F2100769
:100C300040F60044C2F200070020C4F20204A7F804
:100C400001002046012100220125FFF711FC20466A
:100C500002210022FFF70CFC40F21446C4F2020607
:100C60003068382161F31F203060FFF78DFF0420CA
:100C70003870204601210022FFF7FAFB20460221AE
:100C80000022FFF7F5FB30680C2161F31F20306074
:100C9000FFF77AFF204601210022FFF7E9FB2046FB
:100CA00002210022FFF7E4FB3068062161F31F20D8
:100CB0003060FFF769FF204601210022FFF7D8FBD3
:100CC000204602210022FFF7D3FB306865F31F2086
:100CD0003060FFF759FF0520FFF7D8FA052001B073
:100CE000BDE8F040FFF7D2BA2DE9F04F81B040F2F5
:100CF000100741F27E0A012988BF0021C2F20007D5
:100D0000C0F6000AB9701AF8011040F60044C4F2A7
:100D1000020478700844904640F2144B40F080057D
:100D2000204601210022C4F2020B4FF00009FFF718
:100D30009FFB204602210022FFF79AFBDBF8000010
:100D4000E9B2C0B240EA0120CBF80000FFF71CFF77
:100D500098F80060002E00F0898008F1010519E084
:100D6000204601210122FFF783FB204602210022B9
:100D7000FFF77EFBDBF80000C0B240EA0620CBF8AC
:100D80000000FFF701FF78780130787015F8016BEB
:100D9000002E6BD07878102822D3B878002201304A
:100DA000C1B2012988BF0020C1B21AF80160B87031
:100DB0002046012187F80190FFF75AFB20460221C7
:100DC0000022FFF755FBDBF80000C0B240EA062026
:100DD00040F40040CBF80000FFF7D6FE15F8016C98
:100DE0000D2E21D00A2EBBD1B87879780130C2B24D
:100DF000012A88BF0020C2B21AF80220B870501829
:100E000040F08006204601210022FFF731FB2046FA
:100E100002210022FFF72CFBDBF80000F1B2C0B288
:100E200040EA01201AE000BFB8780121012888BFFC
:100E300000201AF80060B8702046002287F8019060
:100E4000FFF716FB204602210022FFF711FBDBF81B
:100E50000000C0B240EA062040F40040CBF8000099
:100E6000FFF792FE15F8016B002E93D101B0BDE89B
:100E7000F08F00002DE9F04387B0002143F63000E9
:100E800006910191C4F20200026840F2004442F06F
:100E9000040202600268C4F2020402F00402019239
:100EA000019A019102684FF47F4642F0800202608D
:100EB000026802F080020192019A0191026842F0F8
:100EC00002020260026802F002020192019A01919C
:100ED000026842F001020260026802F0010201921F
:100EE000019A01910168002241F008010160006847
:100EF0004FF47F4100F00800019001982046FFF771
:100F0000B7FA04F500652846072100224FF00708CC
:100F1000FFF7AEFA029602AE01274FF00209204613
:100F20003146CDE90377CDF81490FFF7C3F9284691
:100F30003146CDE90287CDE90479FFF7BBF907B067
:100F4000BDE8F083FEE70000FEE700007047000008
:100F500070470000FFF798BAB0B592B0002443F68E
:100F600040000B94CDE90944CDE907440594CDE94F
:100F70000344CDE901440094C4F202000168022553
:100F800041F080510160006800F0805000900098AE
:100F900047F200000094C4F20000016841F480416F
:100FA0000160006800F480400090009801200990E2
:100FB00010200A9008200E90A820CDE90F050420EB
:100FC000119006A80695CDE90C54FFF7E9FB28B16E
:100FD000EFF3108072B600BFFEE700BF0F20CDE92F
:100FE00001054FF4A05004904FF48050059001A8E3
:100FF00005210394FFF7EEFA20B1EFF3108072B6EB
:10100000FEE700BF12B0B0BD4EF68850CEF2000031
:10101000016841F47001016070470000FEE70000C4
:10102000FFF740FAFFF798FFFFF724FFFFF7FCFDFB
:10103000FFF78AFD03A200200021FFF755FE00BF45
:10104000FEE700BF49204C6F766520596F752E0072
:1010500002E008C8121F08C1002AFAD17047704781
:10106000002001E001C1121F002AFBD170470000DF
:101070000000000000000102030406070809004008
:1010800014540000A8100008000000201000000008
:1010900050100008B81000081000002008040000DC
:1010A00060100008000000000100000010000000B7
:0810B0000024F4000000000020
:040000050800018965
:00000001FF
